{
  "contractName": "Polling",
  "abi": [
    {
      "anonymous": false,
      "inputs": [
        {
          "indexed": true,
          "internalType": "uint256",
          "name": "pollId",
          "type": "uint256"
        },
        {
          "indexed": false,
          "internalType": "string",
          "name": "question",
          "type": "string"
        },
        {
          "indexed": true,
          "internalType": "address",
          "name": "creator",
          "type": "address"
        }
      ],
      "name": "PollCreated",
      "type": "event"
    },
    {
      "anonymous": false,
      "inputs": [
        {
          "indexed": true,
          "internalType": "uint256",
          "name": "pollId",
          "type": "uint256"
        },
        {
          "indexed": false,
          "internalType": "uint256",
          "name": "optionIndex",
          "type": "uint256"
        },
        {
          "indexed": true,
          "internalType": "address",
          "name": "voter",
          "type": "address"
        }
      ],
      "name": "Voted",
      "type": "event"
    },
    {
      "inputs": [],
      "name": "pollCount",
      "outputs": [
        {
          "internalType": "uint256",
          "name": "",
          "type": "uint256"
        }
      ],
      "stateMutability": "view",
      "type": "function",
      "constant": true
    },
    {
      "inputs": [
        {
          "internalType": "uint256",
          "name": "",
          "type": "uint256"
        }
      ],
      "name": "polls",
      "outputs": [
        {
          "internalType": "uint256",
          "name": "id",
          "type": "uint256"
        },
        {
          "internalType": "string",
          "name": "question",
          "type": "string"
        },
        {
          "internalType": "address",
          "name": "creator",
          "type": "address"
        },
        {
          "internalType": "uint256",
          "name": "createdAt",
          "type": "uint256"
        },
        {
          "internalType": "bool",
          "name": "isActive",
          "type": "bool"
        }
      ],
      "stateMutability": "view",
      "type": "function",
      "constant": true
    },
    {
      "inputs": [
        {
          "internalType": "string",
          "name": "_question",
          "type": "string"
        },
        {
          "internalType": "string[]",
          "name": "_options",
          "type": "string[]"
        }
      ],
      "name": "createPoll",
      "outputs": [
        {
          "internalType": "uint256",
          "name": "",
          "type": "uint256"
        }
      ],
      "stateMutability": "nonpayable",
      "type": "function"
    },
    {
      "inputs": [
        {
          "internalType": "uint256",
          "name": "_pollId",
          "type": "uint256"
        },
        {
          "internalType": "uint256",
          "name": "_optionIndex",
          "type": "uint256"
        }
      ],
      "name": "vote",
      "outputs": [],
      "stateMutability": "nonpayable",
      "type": "function"
    },
    {
      "inputs": [
        {
          "internalType": "uint256",
          "name": "_pollId",
          "type": "uint256"
        }
      ],
      "name": "getPollDetails",
      "outputs": [
        {
          "internalType": "string",
          "name": "question",
          "type": "string"
        },
        {
          "internalType": "string[]",
          "name": "options",
          "type": "string[]"
        },
        {
          "internalType": "uint256",
          "name": "createdAt",
          "type": "uint256"
        },
        {
          "internalType": "bool",
          "name": "isActive",
          "type": "bool"
        },
        {
          "internalType": "address",
          "name": "creator",
          "type": "address"
        }
      ],
      "stateMutability": "view",
      "type": "function",
      "constant": true
    },
    {
      "inputs": [
        {
          "internalType": "uint256",
          "name": "_pollId",
          "type": "uint256"
        }
      ],
      "name": "getPollResults",
      "outputs": [
        {
          "internalType": "uint256[]",
          "name": "",
          "type": "uint256[]"
        }
      ],
      "stateMutability": "view",
      "type": "function",
      "constant": true
    },
    {
      "inputs": [
        {
          "internalType": "uint256",
          "name": "_pollId",
          "type": "uint256"
        },
        {
          "internalType": "address",
          "name": "_voter",
          "type": "address"
        }
      ],
      "name": "hasVoted",
      "outputs": [
        {
          "internalType": "bool",
          "name": "",
          "type": "bool"
        }
      ],
      "stateMutability": "view",
      "type": "function",
      "constant": true
    }
  ],
  "bytecode": "0x608060405234801561001057600080fd5b50611a59806100206000396000f3fe608060405234801561001057600080fd5b506004361061007d5760003560e01c80639207891d1161005b5780639207891d146101125780639a0040e414610130578063ac2f007414610164578063b384abef146101985761007d565b806333b4097b1461008257806343859632146100b25780637e3d71c3146100e2575b600080fd5b61009c60048036038101906100979190610bf9565b6101b4565b6040516100a99190610ce4565b60405180910390f35b6100cc60048036038101906100c79190610d64565b6102c9565b6040516100d99190610dbf565b60405180910390f35b6100fc60048036038101906100f79190611006565b610377565b604051610109919061108d565b60405180910390f35b61011a61056f565b604051610127919061108d565b60405180910390f35b61014a60048036038101906101459190610bf9565b610575565b60405161015b959493929190611242565b60405180910390f35b61017e60048036038101906101799190610bf9565b61078e565b60405161018f9594939291906112a3565b60405180910390f35b6101b260048036038101906101ad91906112fd565b610879565b005b606060015482106101fa576040517f08c379a00000000000000000000000000000000000000000000000000000000081526004016101f190611389565b60405180910390fd5b600080600084815260200190815260200160002090506000816002018054905067ffffffffffffffff81111561023357610232610df5565b5b6040519080825280602002602001820160405280156102615781602001602082028036833780820191505090505b50905060005b82600201805490508110156102be578260030160008281526020019081526020016000205482828151811061029f5761029e6113a9565b5b60200260200101818152505080806102b690611407565b915050610267565b508092505050919050565b6000600154831061030f576040517f08c379a000000000000000000000000000000000000000000000000000000000815260040161030690611389565b60405180910390fd5b60008084815260200190815260200160002060040160008373ffffffffffffffffffffffffffffffffffffffff1673ffffffffffffffffffffffffffffffffffffffff16815260200190815260200160002060009054906101000a900460ff16905092915050565b60006002825110156103be576040517f08c379a00000000000000000000000000000000000000000000000000000000081526004016103b5906114c1565b60405180910390fd5b600a82511115610403576040517f08c379a00000000000000000000000000000000000000000000000000000000081526004016103fa90611553565b60405180910390fd5b6000835111610447576040517f08c379a000000000000000000000000000000000000000000000000000000000815260040161043e906115bf565b60405180910390fd5b60006001600081548092919061045c90611407565b919050559050600080600083815260200190815260200160002090508181600001819055508481600101908161049291906117eb565b50838160020190805190602001906104ab929190610ad5565b50338160050160006101000a81548173ffffffffffffffffffffffffffffffffffffffff021916908373ffffffffffffffffffffffffffffffffffffffff16021790555042816006018190555060018160070160006101000a81548160ff0219169083151502179055503373ffffffffffffffffffffffffffffffffffffffff16827fd2a8dbeae3cac9e94402cc3d7e3ee6cb0a2c32d2e426bf82f24b87ffd1089efd8760405161055c91906118bd565b60405180910390a3819250505092915050565b60015481565b606080600080600060015486106105c1576040517f08c379a00000000000000000000000000000000000000000000000000000000081526004016105b890611389565b60405180910390fd5b60008060008881526020019081526020016000209050806001018160020182600601548360070160009054906101000a900460ff168460050160009054906101000a900473ffffffffffffffffffffffffffffffffffffffff168480546106279061160e565b80601f01602080910402602001604051908101604052809291908181526020018280546106539061160e565b80156106a05780601f10610675576101008083540402835291602001916106a0565b820191906000526020600020905b81548152906001019060200180831161068357829003601f168201915b5050505050945083805480602002602001604051908101604052809291908181526020016000905b828210156107745783829060005260206000200180546106e79061160e565b80601f01602080910402602001604051908101604052809291908181526020018280546107139061160e565b80156107605780601f1061073557610100808354040283529160200191610760565b820191906000526020600020905b81548152906001019060200180831161074357829003601f168201915b5050505050815260200190600101906106c8565b505050509350955095509550955095505091939590929450565b60006020528060005260406000206000915090508060000154908060010180546107b79061160e565b80601f01602080910402602001604051908101604052809291908181526020018280546107e39061160e565b80156108305780601f1061080557610100808354040283529160200191610830565b820191906000526020600020905b81548152906001019060200180831161081357829003601f168201915b5050505050908060050160009054906101000a900473ffffffffffffffffffffffffffffffffffffffff16908060060154908060070160009054906101000a900460ff16905085565b60015482106108bd576040517f08c379a00000000000000000000000000000000000000000000000000000000081526004016108b490611389565b60405180910390fd5b600080600084815260200190815260200160002090508060070160009054906101000a900460ff16610924576040517f08c379a000000000000000000000000000000000000000000000000000000000815260040161091b9061192b565b60405180910390fd5b8060040160003373ffffffffffffffffffffffffffffffffffffffff1673ffffffffffffffffffffffffffffffffffffffff16815260200190815260200160002060009054906101000a900460ff16156109b3576040517f08c379a00000000000000000000000000000000000000000000000000000000081526004016109aa90611997565b60405180910390fd5b806002018054905082106109fc576040517f08c379a00000000000000000000000000000000000000000000000000000000081526004016109f390611a03565b60405180910390fd5b8060030160008381526020019081526020016000206000815480929190610a2290611407565b919050555060018160040160003373ffffffffffffffffffffffffffffffffffffffff1673ffffffffffffffffffffffffffffffffffffffff16815260200190815260200160002060006101000a81548160ff0219169083151502179055503373ffffffffffffffffffffffffffffffffffffffff16837fd91ecafccf238642dccd41161308b3eebe62a12bc5819daf5164780c221ec95b84604051610ac8919061108d565b60405180910390a3505050565b828054828255906000526020600020908101928215610b1d579160200282015b82811115610b1c578251829081610b0c91906117eb565b5091602001919060010190610af5565b5b509050610b2a9190610b2e565b5090565b5b80821115610b4e5760008181610b459190610b52565b50600101610b2f565b5090565b508054610b5e9061160e565b6000825580601f10610b705750610b8f565b601f016020900490600052602060002090810190610b8e9190610b92565b5b50565b5b80821115610bab576000816000905550600101610b93565b5090565b6000604051905090565b600080fd5b600080fd5b6000819050919050565b610bd681610bc3565b8114610be157600080fd5b50565b600081359050610bf381610bcd565b92915050565b600060208284031215610c0f57610c0e610bb9565b5b6000610c1d84828501610be4565b91505092915050565b600081519050919050565b600082825260208201905092915050565b6000819050602082019050919050565b610c5b81610bc3565b82525050565b6000610c6d8383610c52565b60208301905092915050565b6000602082019050919050565b6000610c9182610c26565b610c9b8185610c31565b9350610ca683610c42565b8060005b83811015610cd7578151610cbe8882610c61565b9750610cc983610c79565b925050600181019050610caa565b5085935050505092915050565b60006020820190508181036000830152610cfe8184610c86565b905092915050565b600073ffffffffffffffffffffffffffffffffffffffff82169050919050565b6000610d3182610d06565b9050919050565b610d4181610d26565b8114610d4c57600080fd5b50565b600081359050610d5e81610d38565b92915050565b60008060408385031215610d7b57610d7a610bb9565b5b6000610d8985828601610be4565b9250506020610d9a85828601610d4f565b9150509250929050565b60008115159050919050565b610db981610da4565b82525050565b6000602082019050610dd46000830184610db0565b92915050565b600080fd5b600080fd5b6000601f19601f8301169050919050565b7f4e487b7100000000000000000000000000000000000000000000000000000000600052604160045260246000fd5b610e2d82610de4565b810181811067ffffffffffffffff82111715610e4c57610e4b610df5565b5b80604052505050565b6000610e5f610baf565b9050610e6b8282610e24565b919050565b600067ffffffffffffffff821115610e8b57610e8a610df5565b5b610e9482610de4565b9050602081019050919050565b82818337600083830152505050565b6000610ec3610ebe84610e70565b610e55565b905082815260208101848484011115610edf57610ede610ddf565b5b610eea848285610ea1565b509392505050565b600082601f830112610f0757610f06610dda565b5b8135610f17848260208601610eb0565b91505092915050565b600067ffffffffffffffff821115610f3b57610f3a610df5565b5b602082029050602081019050919050565b600080fd5b6000610f64610f5f84610f20565b610e55565b90508083825260208201905060208402830185811115610f8757610f86610f4c565b5b835b81811015610fce57803567ffffffffffffffff811115610fac57610fab610dda565b5b808601610fb98982610ef2565b85526020850194505050602081019050610f89565b5050509392505050565b600082601f830112610fed57610fec610dda565b5b8135610ffd848260208601610f51565b91505092915050565b6000806040838503121561101d5761101c610bb9565b5b600083013567ffffffffffffffff81111561103b5761103a610bbe565b5b61104785828601610ef2565b925050602083013567ffffffffffffffff81111561106857611067610bbe565b5b61107485828601610fd8565b9150509250929050565b61108781610bc3565b82525050565b60006020820190506110a2600083018461107e565b92915050565b600081519050919050565b600082825260208201905092915050565b60005b838110156110e25780820151818401526020810190506110c7565b60008484015250505050565b60006110f9826110a8565b61110381856110b3565b93506111138185602086016110c4565b61111c81610de4565b840191505092915050565b600081519050919050565b600082825260208201905092915050565b6000819050602082019050919050565b600082825260208201905092915050565b600061116f826110a8565b6111798185611153565b93506111898185602086016110c4565b61119281610de4565b840191505092915050565b60006111a98383611164565b905092915050565b6000602082019050919050565b60006111c982611127565b6111d38185611132565b9350836020820285016111e585611143565b8060005b858110156112215784840389528151611202858261119d565b945061120d836111b1565b925060208a019950506001810190506111e9565b50829750879550505050505092915050565b61123c81610d26565b82525050565b600060a082019050818103600083015261125c81886110ee565b9050818103602083015261127081876111be565b905061127f604083018661107e565b61128c6060830185610db0565b6112996080830184611233565b9695505050505050565b600060a0820190506112b8600083018861107e565b81810360208301526112ca81876110ee565b90506112d96040830186611233565b6112e6606083018561107e565b6112f36080830184610db0565b9695505050505050565b6000806040838503121561131457611313610bb9565b5b600061132285828601610be4565b925050602061133385828601610be4565b9150509250929050565b7f506f6c6c20646f6573206e6f7420657869737400000000000000000000000000600082015250565b60006113736013836110b3565b915061137e8261133d565b602082019050919050565b600060208201905081810360008301526113a281611366565b9050919050565b7f4e487b7100000000000000000000000000000000000000000000000000000000600052603260045260246000fd5b7f4e487b7100000000000000000000000000000000000000000000000000000000600052601160045260246000fd5b600061141282610bc3565b91507fffffffffffffffffffffffffffffffffffffffffffffffffffffffffffffffff8203611444576114436113d8565b5b600182019050919050565b7f506f6c6c206d7573742068617665206174206c656173742032206f7074696f6e60008201527f7300000000000000000000000000000000000000000000000000000000000000602082015250565b60006114ab6021836110b3565b91506114b68261144f565b604082019050919050565b600060208201905081810360008301526114da8161149e565b9050919050565b7f506f6c6c2063616e6e6f742068617665206d6f7265207468616e203130206f7060008201527f74696f6e73000000000000000000000000000000000000000000000000000000602082015250565b600061153d6025836110b3565b9150611548826114e1565b604082019050919050565b6000602082019050818103600083015261156c81611530565b9050919050565b7f5175657374696f6e2063616e6e6f7420626520656d7074790000000000000000600082015250565b60006115a96018836110b3565b91506115b482611573565b602082019050919050565b600060208201905081810360008301526115d88161159c565b9050919050565b7f4e487b7100000000000000000000000000000000000000000000000000000000600052602260045260246000fd5b6000600282049050600182168061162657607f821691505b602082108103611639576116386115df565b5b50919050565b60008190508160005260206000209050919050565b60006020601f8301049050919050565b600082821b905092915050565b6000600883026116a17fffffffffffffffffffffffffffffffffffffffffffffffffffffffffffffffff82611664565b6116ab8683611664565b95508019841693508086168417925050509392505050565b6000819050919050565b60006116e86116e36116de84610bc3565b6116c3565b610bc3565b9050919050565b6000819050919050565b611702836116cd565b61171661170e826116ef565b848454611671565b825550505050565b600090565b61172b61171e565b6117368184846116f9565b505050565b5b8181101561175a5761174f600082611723565b60018101905061173c565b5050565b601f82111561179f576117708161163f565b61177984611654565b81016020851015611788578190505b61179c61179485611654565b83018261173b565b50505b505050565b600082821c905092915050565b60006117c2600019846008026117a4565b1980831691505092915050565b60006117db83836117b1565b9150826002028217905092915050565b6117f4826110a8565b67ffffffffffffffff81111561180d5761180c610df5565b5b611817825461160e565b61182282828561175e565b600060209050601f8311600181146118555760008415611843578287015190505b61184d85826117cf565b8655506118b5565b601f1984166118638661163f565b60005b8281101561188b57848901518255600182019150602085019450602081019050611866565b868310156118a857848901516118a4601f8916826117b1565b8355505b6001600288020188555050505b505050505050565b600060208201905081810360008301526118d781846110ee565b905092915050565b7f506f6c6c206973206e6f74206163746976650000000000000000000000000000600082015250565b60006119156012836110b3565b9150611920826118df565b602082019050919050565b6000602082019050818103600083015261194481611908565b9050919050565b7f596f75206861766520616c726561647920766f74656400000000000000000000600082015250565b60006119816016836110b3565b915061198c8261194b565b602082019050919050565b600060208201905081810360008301526119b081611974565b9050919050565b7f496e76616c6964206f7074696f6e000000000000000000000000000000000000600082015250565b60006119ed600e836110b3565b91506119f8826119b7565b602082019050919050565b60006020820190508181036000830152611a1c816119e0565b905091905056fea2646970667358221220f4268b18c73cf34b7606612d48f19fce9a92d6e5675eb92455c4a5614602459a64736f6c63430008130033",
  "immutableReferences": {},
  "source": "// SPDX-License-Identifier: MIT\npragma solidity ^0.8.19;\n\ncontract Polling {\n    struct Poll {\n        uint256 id;\n        string question;\n        string[] options;\n        mapping(uint256 => uint256) votes;\n        mapping(address => bool) hasVoted;\n        address creator;\n        uint256 createdAt;\n        bool isActive;\n    }\n    \n    mapping(uint256 => Poll) public polls;\n    uint256 public pollCount;\n    \n    event PollCreated(uint256 indexed pollId, string question, address indexed creator);\n    event Voted(uint256 indexed pollId, uint256 optionIndex, address indexed voter);\n    \n    function createPoll(string memory _question, string[] memory _options) public returns (uint256) {\n        require(_options.length >= 2, \"Poll must have at least 2 options\");\n        require(_options.length <= 10, \"Poll cannot have more than 10 options\");\n        require(bytes(_question).length > 0, \"Question cannot be empty\");\n        \n        uint256 pollId = pollCount++;\n        Poll storage newPoll = polls[pollId];\n        newPoll.id = pollId;\n        newPoll.question = _question;\n        newPoll.options = _options;\n        newPoll.creator = msg.sender;\n        newPoll.createdAt = block.timestamp;\n        newPoll.isActive = true;\n        \n        emit PollCreated(pollId, _question, msg.sender);\n        return pollId;\n    }\n    \n    function vote(uint256 _pollId, uint256 _optionIndex) public {\n        require(_pollId < pollCount, \"Poll does not exist\");\n        Poll storage poll = polls[_pollId];\n        require(poll.isActive, \"Poll is not active\");\n        require(!poll.hasVoted[msg.sender], \"You have already voted\");\n        require(_optionIndex < poll.options.length, \"Invalid option\");\n        \n        poll.votes[_optionIndex]++;\n        poll.hasVoted[msg.sender] = true;\n        \n        emit Voted(_pollId, _optionIndex, msg.sender);\n    }\n    \n    function getPollDetails(uint256 _pollId) public view returns (\n        string memory question,\n        string[] memory options,\n        uint256 createdAt,\n        bool isActive,\n        address creator\n    ) {\n        require(_pollId < pollCount, \"Poll does not exist\");\n        Poll storage poll = polls[_pollId];\n        return (poll.question, poll.options, poll.createdAt, poll.isActive, poll.creator);\n    }\n    \n    function getPollResults(uint256 _pollId) public view returns (uint256[] memory) {\n        require(_pollId < pollCount, \"Poll does not exist\");\n        Poll storage poll = polls[_pollId];\n        uint256[] memory results = new uint256[](poll.options.length);\n        \n        for (uint256 i = 0; i < poll.options.length; i++) {\n            results[i] = poll.votes[i];\n        }\n        \n        return results;\n    }\n    \n    function hasVoted(uint256 _pollId, address _voter) public view returns (bool) {\n        require(_pollId < pollCount, \"Poll does not exist\");\n        return polls[_pollId].hasVoted[_voter];\n    }\n}\n",
  "sourcePath": "/home/patil/Desktop/voting system based on blockchain/contract/contracts/Polling.sol",
  "compiler": {
    "name": "solc",
    "version": "0.8.19+commit.7dd6d404.Emscripten.clang"
  },
  "schemaVersion": "3.4.16",
  "updatedAt": "2026-01-31T14:51:00.966Z",
  "networkType": "ethereum",
  "devdoc": {
    "kind": "dev",
    "methods": {},
    "version": 1
  },
  "userdoc": {
    "kind": "user",
    "methods": {},
    "version": 1
  }
}